:020000040000FA
:10000000C01C0020AD010000B5010000B7010000D8
:1000100000000000000000000000000000000000E0
:10002000000000000000000000000000B901000016
:100030000000000000000000BB010000BD01000046
:10004000BF010000BF010000BF010000BF010000B0
:10005000BF010000BF010000BF010000BF010000A0
:10006000BF010000BF01000039140000BF01000003
:10007000BF010000BF010000BF010000BF01000080
:10008000BF010000BF010000BF010000BF01000070
:10009000BF010000BF010000BF010000BF01000060
:1000A000BF010000BF010000BF010000BF01000050
:1000B000BF010000BF010000BF010000BF01000040
:1000C00000F002F800F046F80CA030C808382418F8
:1000D0002D18A246671EAB4654465D46AC4201D180
:1000E00000F038F87E460F3E0FCCB646012633426C
:1000F00000D0FB1AA246AB4633431847041C00004D
:10010000241C0000103A02D378C878C1FAD85207EC
:1001100001D330C830C101D504680C6070470000BD
:100120000023002400250026103A01D378C1FBD813
:10013000520700D330C100D50B60704710B5642959
:1001400002D100F099F810BD002010BD1FB51FBDF1
:1001500010B510BD00F08FFA1146FFF7F7FF01F060
:10016000ADFB00F0A7FA03B4FFF7F2FF03BC00F009
:10017000ADFA000070B505460C46164602E00FCCFD
:100180000FC5103E102EFAD2082E02D303CC03C5A1
:10019000083E042E07D301CC01C5361F03E02178A9
:1001A0002970641C6D1C761EF9D270BD074880470B
:1001B00007480047FEE7FEE7FEE7FEE7FEE7FEE74B
:1001C00004480549054A064B7047000085130000A6
:1001D000C1000000C00C0020C01C0020C014002082
:1001E000C01400200FB41CB5074B06AA7B44694617
:1001F0000090059800F013FA0020694600F022FAFA
:100200001CBC08BC04B0184755040000F8B50E46E5
:100210000446002020622046E1688847002829D053
:10022000252802D06268A16820E0E1682046002706
:10023000884705001ED028464138192802D80127D2
:10024000FF0220353246204627602946FFF776FF19
:10025000002808D0012804D0F61DF608F60008365C
:10026000D9E7361DD7E762682846A1689047206A1B
:10027000401CCFE7206AF8BDF7B500257529106846
:10028000009914A611D0C046C046002802DA4042A8
:1002900011A608E0009909688A0701D50FA602E0B7
:1002A000490704D50EA6012501E0C046C046009FBF
:1002B0000024243704E000F0CAF930313955641CB9
:1002C0000028F8D12B4632462146009800F049F923
:1002D000FEBD0000000000002D0000002B0000000B
:1002E0002000000030B5441C03E00178401C0029C8
:1002F0000DD08107F9D10B4BDD0104C8D11A914310
:100300002940FAD0001B0A0603D0C01E30BD001BD6
:1003100030BD0A0401D0801E30BD0902FCD0401E51
:1003200030BD000001010101421E5378521C002B18
:10033000FBD10B78491C1370521C002BF9D170476C
:10034000F8B5042A2CD3830712D00B78491C03700C
:10035000401C521E83070BD00B78491C0370401CB5
:10036000521E830704D00B78491C0370401C521E98
:100370008B079B0F05D0C91ADF002023DE1B08C99D
:100380000AE0FFF7F7FEF8BD1D4608C9FD401C4610
:10039000B4402C4310C0121F042AF5D2F308C91A26
:1003A000521EF0D40B78491C0370401C521EEAD434
:1003B0000B78491C0370401C012AE4D409780170B1
:1003C000F8BD01E004C0091F0429FBD28B0701D549
:1003D0000280801CC90700D00270704700290BD032
:1003E000C30702D00270401C491E022904D38307B0
:1003F00002D50280801C891EE3E70022EEE700227E
:10040000DFE7002203098B422CD3030A8B4211D36E
:1004100000239C464EE003460B433CD40022430895
:100420008B4231D303098B421CD3030A8B4201D385
:1004300094463FE0C3098B4201D3CB01C01A52411D
:1004400083098B4201D38B01C01A524143098B426D
:1004500001D34B01C01A524103098B4201D30B0156
:10046000C01A5241C3088B4201D3CB00C01A52417B
:1004700083088B4201D38B00C01A524143088B4240
:1004800001D34B00C01A5241411A00D201465241D9
:10049000104670475DE0CA0F00D04942031000D3F8
:1004A0004042534000229C4603098B422DD3030A4D
:1004B0008B4212D3FC22890112BA030A8B420CD35D
:1004C000890192118B4208D3890192118B4204D386
:1004D00089013AD0921100E08909C3098B4201D306
:1004E000CB01C01A524183098B4201D38B01C01A40
:1004F000524143098B4201D34B01C01A52410309B7
:100500008B4201D30B01C01A5241C3088B4201D365
:10051000CB00C01A524183088B4201D38B00C01A12
:100520005241D9D243088B4201D34B00C01A5241E9
:10053000411A00D20146634652415B10104601D376
:100540004042002B00D54942704763465B1000D300
:10055000404201B50020C046C04602BD704770470A
:100560007047FFB504460D4681B0243000902168E5
:10057000880604D51022E0699143216000E0012043
:10058000A84201DD471B00E000270498A1697A1901
:100590001018081AA0612078C00602D42046C04670
:1005A000C046002608E003986268A168805D904715
:1005B000206A401C761C206204988642F3DB207877
:1005C000C0060AD52046C046C04606E06268A1685B
:1005D00030209047206A401C206238467F1E002849
:1005E000F4DC07E000986268A168405D9047206AEB
:1005F000401C206228466D1E0028F3DC2046C046C1
:10060000C0462078000602D5022005B0F0BD0120CA
:10061000FBE7000001694A1C02610878704700B5D9
:100620008FB002910021059105490193794403910E
:10063000114604906846FFF7E9FD0FB000BD0000C9
:10064000E5FFFFFF0A681070521C0A607047014600
:100650008008081A02091018020A1018020C101853
:10066000C008820012185200891A01E0401C0A39A1
:100670000A29FBD27047754600F024F8AE46050003
:1006800069465346C008C000854618B020B5FFF73C
:1006900097FD60BC00274908B6460026C0C5C0C506
:1006A000C0C5C0C5C0C5C0C5C0C5C0C5403D490066
:1006B0008D46704710B50446C046C0462046FFF739
:1006C00052FD10BD004870475C0C00200149182005
:1006D000ABBEFEE7260002007047000070B5412166
:1006E00009013048FFF789FE032212032E492D48E5
:1006F00001F065F8002853D12A48C0782B490870CA
:1007000008460078292829D02A2818D02C2802D079
:100710002F2844D131E024490888C117890F0918CE
:1007200089108900411A04D01F480088001D1E4905
:1007300008801D4801881B4801F076F82FE01C480E
:100740000078401CC0B21A490870022805DB00F08E
:1007500077FF0520C00201F029F820E01548FFF7D7
:10076000C1FD84B21348FFF7BDFDC01C85B222460F
:100770002946104800F0D0FF11E0002407E0204691
:100780000A3081020C4800F0EFF8601CC4B2F62C6D
:10079000F5DB1022132109A000F0BEFF00BF00BF4F
:1007A00070BD00002C000020260000202300002047
:1007B00024000020000000200010004045726173FA
:1007C00065204F4B0D0A000010B500F09BFD00F0B6
:1007D0005BFE0120400300F07DFF0549884202D105
:1007E000401E00F0E3FF01F07DF862B610BD00008E
:1007F000012800000121016270470146086A0722B2
:100800005204104070470146086A012292021040CB
:10081000800A70470146086AFF2201321040000A30
:1008200070470146086AC007C00F0122504050407F
:1008300070470146086A012252021040400A704780
:100840000146086A02221040400870470021C9434F
:1008500081617047FEB505460C461646002701200B
:10086000009000BF3B48854201D1012000E00020FC
:10087000002801D100BFFEE700BF00BF002C04D953
:100880003548844201D8012000E00020002801D131
:1008900000BFFEE700BF202000F09EFBA007800FF6
:1008A000002801D00020FEBD2846FFF7A6FF012149
:1008B000C904884201D10020F5E70120800500F03D
:1008C00093FB284600F0F0F82846FFF796FF032137
:1008D000490488420ED000F0E9FD019072B61F492C
:1008E000284600F0EAF81E49284600F0E6F801988C
:1008F00000F0DFFD266021E07F1C1A4887420ED8F9
:100900002846FFF787FF002809D12846FFF791FF07
:10091000002804D12846FFF776FF002802D00020E7
:1009200000900CE02846FFF78BFF002806D000BFA0
:100930000220286200BF0120009000E0DCE700BF39
:100940002846FFF783FF0120800500F03DFB00985B
:10095000A9E7000000100040FFFF0300A5A5A5A522
:10096000F1F1F1F1FFFF0000F8B505460C46002655
:10097000012700BF3E48854201D1012000E0002050
:10098000002801D100BFFEE700BF00BF002C04D942
:100990003848844201D8012000E00020002801D11D
:1009A00000BFFEE700BF202000F016FBA007800F6D
:1009B000002801D00020F8BD2846FFF71EFF0121C6
:1009C000C904884201D10020F5E70120800500F02C
:1009D0000BFBFF210131284600F056F8284600F0B5
:1009E0005AF82846FFF709FF0121890488420ED0F2
:1009F00000F05CFD009072B61F49284600F05DF8DB
:100A00001E49284600F059F8009800F052FD28468B
:100A1000FFF7F0FE1A4820601EE0761C1948864257
:100A20000ED82846FFF7F6FE002809D12846FFF722
:100A300000FF002804D12846FFF7E5FE002801D07A
:100A400000270AE02846FFF7ECFE002804D02846DD
:100A5000FFF7D0FE012700E0DFE700BF2846FFF7E1
:100A6000F5FE0120800500F0AFFA3846A3E700004C
:100A700000100040FFFF0300969696963C3C3C3CDD
:100A8000CDAB3412FFFF0000426903231B029A43DF
:100A90000A434261704741690222914341614169C1
:100AA0000122114341617047416949084900416190
:100AB0004169022211434161704781617047000022
:100AC00000B585B014216846FFF799FC684600F030
:100AD00011F901200290019019491A4800F004F917
:100AE00017491848403000F0FFF815491548803084
:100AF00000F0FAF814491348C03000F0F5F86946E0
:100B0000104800F023F869460E48403000F01EF807
:100B100069460C48803000F019F869460948C03031
:100B200000F014F8FF208130009002200190012095
:100B3000039069460348C03000F008F805B000BDD6
:100B4000FFFF0000000C00407FFE0000F0B50246F1
:100B50000B460024002100BF604882420BD05F4852
:100B60004030824207D05D488030824203D05B48EB
:100B7000C030824201D1012000E00020002801D1D4
:100B800000BFFEE700BF00BF1868002805D9544D1C
:100B90001868A84201D8012000E00020002801D1F7
:100BA00000BFFEE700BF00BF5868032808D05868A0
:100BB000002805D05868012802D05868022801D1C1
:100BC000012000E00020002801D100BFFEE700BFA7
:100BD00000BF9868012802D09868002801D1012040
:100BE00000E00020002801D100BFFEE700BF00BFE9
:100BF000D868002802D0D868012801D1012000E07F
:100C00000020002801D100BFFEE700BF8020354D45
:100C1000AD6A0543334EB56200BF58E00125A540DB
:100C2000186828400146002950D09868002806D14D
:100C300000BF90688DB2A843906000BF06E000BF7F
:100C400090688DB22843906000BF00BFD86800282C
:100C500006D000BF50688DB22843506000BF06E048
:100C600000BF50688DB2A843506000BF00BF5868F5
:100C7000032806D100BF906A8DB22843906200BF5E
:100C800000BF5868022809D11869012806D100BFA1
:100C9000106A8DB22843106200BF00BF5868002858
:100CA00006D100BF10688DB22843106000BF00BF9E
:100CB0005868D5680E464E437700F619B5430E4680
:100CC0004E4346433543D56000BF00BF641C1868DF
:100CD000E0400028A2D10120F0BD0000000C00403F
:100CE000FFFF00000002004042698BB21A434261DC
:100CF00070470000044901600021416001218160CA
:100D00000021C16001617047FFFF000010B501467E
:100D100000BF134AD26807231B021A40052424028D
:100D2000131BA24214D006DC002A0DD001239B0223
:100D3000D21A13D10AE0DA1FF93A002A0AD0FF3A90
:100D4000013A002A0AD107E0084607E0480805E012
:100D5000880803E0C80801E0080900BF00BF10BD13
:100D60000002004010B5014600BF134AD2680723B5
:100D70001B041A4005242404131BA24214D006DCD1
:100D8000002A0DD001239B04D21A13D10AE00122BC
:100D900012049A1A0AD001231B04D21A0AD107E0BE
:100DA000084607E0480805E0880803E0C80801E0B5
:100DB000080900BF00BF10BD0002004010B5014689
:100DC00000BF134AD2680723DB041A400524E40459
:100DD000131BA24214D006DC002A0DD001235B05B0
:100DE000D21A13D10AE00122D2049A1A0AD001239E
:100DF000DB04D21A0AD107E0084607E0480805E0FC
:100E0000880803E0C80801E0080900BF00BF10BD62
:100E10000002004070B500BF2348806902210840ED
:100E2000002802D0022806D103E000F069F8044649
:100E300001E01E4C00BF00BF00BF1B48806970214D
:100E400008400107090F00291FD10011030000F01D
:100E50001FFB080506080A0C12141A1C15E064088A
:100E600013E0A40811E0E4080FE00C212046FFF78E
:100E7000C8FA044609E0240907E018212046FFF7D4
:100E8000C0FA044601E0640900BF00BF00BF064885
:100E900080697F2109040840050C00BF2046684393
:100EA0000446204670BD00000002004000127A0097
:100EB00000BF0E49496A032212041140002908D0DC
:100EC00001221204891A06D0891A06D0891A08D17B
:100ED00005E0074807E0074805E0074803E0074842
:100EE00001E0034800BF00BF70470000400200401F
:100EF00000093D0040420F0020A1070090D00300F0
:100F000000BF0C4909690F2212041140002906D0C4
:100F100001221204891A04D0891A06D103E0064876
:100F200005E0064803E0064801E0034800BF00BFB3
:100F3000704700000002004000127A000024F40014
:100F400000366E0110B500BF1049C9684907490F46
:100F50000B0000F09DFA0805080A190D1016131968
:100F6000FFF7CEFF10E00A480EE0FFF753FF0BE05B
:100F7000FFF79EFF08E00120C00305E000F00AF83B
:100F800002E07D20000200BF00BF10BD0002004053
:100F900000127A0000BF0548C068082108400028F8
:100FA00001D1034870470348FCE7000000020040FD
:100FB000006CDC02008793030249C96A0143014ABD
:100FC000D1627047400200400249096B8143014AE7
:100FD00011637047400200400249C96A0143014A57
:100FE000D1627047000200400249096B0143014A87
:100FF00011637047400200400249096B0143014AF6
:101000001163704700020040044909690F2212046D
:1010100091430143014A1161704700000002004002
:1010200003494969C909C9010143014A516170472E
:1010300000020040FEB505460C460020029000BFAD
:10104000AB48854208D0AB48854205D0AA488542C6
:1010500002D0AA48854201D1012000E000200028EA
:1010600001D100BFFEE700BF00BF2068002808D004
:101070002068012805D02068032802D020680428B1
:1010800001D1012000E00020002801D100BFFEE7CF
:1010900000BF00BFA068C02808D0A068002805D005
:1010A000A068402802D0A068802801D1012000E07B
:1010B0000020002801D100BFFEE700BF00BFE121F2
:1010C000C9026068884201D8012000E000200028A1
:1010D00001D100BFFEE700BF00BF2069002805D096
:1010E0002069102802D02069202801D1012000E0C9
:1010F0000020002801D100BFFEE700BF00BFE0686C
:10110000002804D0FF210131E068884201D101208C
:1011100000E00020002801D100BFFEE700BF00BFB3
:101120006069002808D06069022805D0606901283C
:1011300002D06069032801D1012000E000200028CE
:1011400001D100BFFEE700BF00BFA069002802D0A8
:10115000A069012801D1012000E00020002801D170
:1011600000BFFEE700BF6248854202D06148854269
:101170003ED1284621685E4A904207D1604AD26A31
:10118000920892000A435E4BDA620AE0594A9042A2
:1011900007D15B4AD26A0C239A438B001A43584BFF
:1011A000DA6200BF2068002806D001280ED003288C
:1011B00010D0042816D111E0FFF7C4FE0090FFF70D
:1011C000A5FD0190FFF7CEFD06460BE0FFF798FE68
:1011D000064607E0FFF7B6FE064603E0FFF768FEA7
:1011E000064600BF00BF30466168FFF70AF9471E98
:1011F0003F48854206D18015FFF7FEFEA815FFF790
:10120000DBFE32E03B48854206D14015FFF7F4FE95
:101210006815FFF7D1FE28E03748854211D18014C8
:10122000FFF7EAFEFFF78EFE0090FFF76FFD0190DB
:10123000FFF7C4FD064630466168FFF7E2F8471E37
:1012400013E02E48854210D14014FFF7D5FEFFF77A
:1012500079FE0090FFF75AFD0190FFF7AFFD0646BB
:1012600030466168FFF7CDF8471E207DC007C00FEC
:10127000002806D000BF286801210843286000BF6D
:1012800000BF022160690840002805D000BF28681F
:101290000843286000BF00BFA069012807D100BF34
:1012A0002868012149040843286000BF00BF00BF2F
:1012B000A869000C00043843A86100BFE0682968F1
:1012C000FF22013291430143296000BFA0682968D1
:1012D000C02291430143296000BF20692968302260
:1012E00091430143296000BF012002900298FEBD96
:1012F000001C01400020014000A0014000A401406A
:101300004002004010B5FFF7DBFB10BD10B5002810
:1013100019DB1A4A03231B02D21883089B00D258F8
:101320008307DC0EFF23A3409A438B071B0E840721
:10133000E40EA3401A43114B032424021B19840812
:10134000A4001A5118E00E4A03071B0F083B9B0824
:101350009B00D2588307DC0EFF23A3409A438B07E0
:101360001B0E8407E40EA3401A43054B0407240F09
:10137000083CA408A4001A5110BD000000E100E0E0
:101380001CED00E028490868010C0140002903D148
:101390004106490E254A516123494868010C4140E4
:1013A000C9B2FF2904D14106490E204A4032916258
:1013B00000211E4A916105214906D1601146896AC2
:1013C00080221143194A91621949C9680F22920477
:1013D0001143174AD1600021144A51621146496AEB
:1013E000052212021143114A51627D20000100E0E2
:1013F000401E0028FCD1AA210C4A91631146C968FD
:1014000092041143094AD1600A4909680122114333
:10141000084A116011464968FE221140054A516090
:101420000321D2045160704740FBFF1F00020040BF
:10143000C00C004000A8014010B500BF1148406832
:10144000FF2101310840000A002808D000BF0D48E4
:1014500080680840000A002801D000F0FFFA00BFB1
:10146000084880680121C9020840C00A002808D045
:1014700000F0B0FA00BF0120C0020249886000BF3E
:1014800000BF10BD001C014010B500F02FF810BDCA
:1014900030B47446641E2578641CAB4204D3635D8B
:1014A0005B00E31830BC18471D46F8E7EFF31080E7
:1014B000704780F31088704770B502460B46FF25D1
:1014C000FF2408E01178521C69400648405C6040E7
:1014D00005460548445C18465B1E0028F2D12802E8
:1014E000204370BDF81A0000F81B000010B5002062
:1014F000002806D001210904401A1BD0401A51D1FE
:1015000034E04948494908600020FFF77DFD48481C
:101510000068000C46490988C94389B2884202D153
:101520004348006800E030204406640E2046FFF780
:1015300077FD50E03F483D4908600020FFF764FD1B
:101540003B484038C06B000C39494039898FC9434A
:1015500089B2884203D136484038C06B00E02A2067
:101560004406640E2046FFF75BFD34E032482F4905
:1015700008600020FFF748FD2D484038806B000CC4
:101580002B494039098FC94389B2884203D1284881
:101590004038806B00E027204406640E2046FFF7A9
:1015A0003FFD18E02048214908600020FFF72CFD8E
:1015B0001F480068000C1E490988C94389B2884247
:1015C00002D11B48006800E030204406640E20462B
:1015D000FFF726FD00BF00BF00201849C968C908F1
:1015E000C9000143154AD16000BF00BF1146C96858
:1015F0000722120291430143104AD16000BF00BF8D
:101600001146C96807221204914301430B4AD16075
:1016100000BF00BF1146C9680722D20491430143AD
:10162000064AD16000BF10BD00127A0028000020D9
:1016300040FBFF1F0024F40000366E010002004052
:1016400010B572B6FFF73CFA0A20002805DBC20687
:10165000D20E01219140114A116000BF00BF104815
:101660004068400840000E49486000BF00BF08467F
:101670004068891588430A49486000BF00BF084692
:10168000006840084000086000BF00BF08460068CE
:10169000022188430249086000BF10BD80E100E0DC
:1016A000001C0140F7B506460F4600240BE0A000E1
:1016B0003A58A00081190648FFF7CCF80546002DDE
:1016C00000D1FEBD641C02988442F0D30120F8E7EB
:1016D00000100040014608687047FEB505460E46FA
:1016E0001746002001903A4631462846FFF7DAFFB8
:1016F000009500240BE0A10000984058A10071580B
:10170000884202D00120019003E0601C84B2BC42F8
:10171000F1DB00BF0198FEBDF0B591B007460E4663
:101720001546382103A8FEF76AFE1F4903C9029136
:101730000190052432122146641C01A8425421461E
:10174000641C465401222146641C42542A1221463C
:10175000641C42542146641C455401A908192A46B8
:101760003946FEF7EDFD6019C4B2214601A8FFF726
:10177000A3FE00900098C2B22046611CCCB201A921
:101780000A54009802122046611CCCB201A90A54E6
:101790007F222046611CCCB201A90A54214601A82F
:1017A00000F086F911B0F0BDF81C000070B50446D9
:1017B0006568206880F3088800BFA84770BDF7B54A
:1017C00004460E46002500203080029882B2412156
:1017D0000901204600F004F90546002D01D1022040
:1017E000FEBD20787E281DD1681E205C7F2819D17F
:1017F000E078292805D0207A0002617A491E084342
:101800003080E91E2046FFF757FE0746A81E205CE1
:101810000002E91E615C0143B94201D10020DFE70B
:101820000320DDE70120DBE7F0B585B005460C4677
:1018300000200190029003900490224629460B312B
:101840001848FEF77DFD2646E117890F891989039F
:101850000A0CA97A89020523DB02C8181149FFF78F
:101860003CFF11A101A8FEF75FFDAA7A10A168460E
:10187000FEF7B8FC694601A8FEF756FD0DA101A8C8
:10188000FEF752FD01A8FEF72DFD86B201A8FEF776
:1018900029FDC01C87B23246394601A8FFF73CFF3C
:1018A00005B0F0BD3C040020506167655B0000009E
:1018B000256400005D204F4B0D0A0000FEF784FFF9
:1018C00001E0FEF70BFFFCE70020054989890129AB
:1018D00004D10021024A91811146488970470000D5
:1018E0003C08002000B58DB0142108A8FEF787FD44
:1018F0001C2101A8FEF783FD0C200890022009900E
:1019000000200A9008A92E48FFF720F94120000185
:101910002C4988802C480860002048818881C88034
:101920000881E120400202904020039000200490B2
:1019300005900320069000200790019001A92348FC
:10194000FFF778FB0A20002805DBC206D20E012132
:1019500091401F4A116000BF02210A20FFF7D6FC08
:101960000A20002806DBC206D20E01219140184A47
:10197000803A116000BF32201449C968090A09027F
:101980000143124AD16000BF00BF10460068012128
:10199000090408431146086000BF00BF08464068BC
:1019A000C91408431146486000BF00BF084640689C
:1019B000891508431146486000BF0DB000BD000006
:1019C000000C00403C0800204C080020001C014096
:1019D00080E100E001200149888170473C08002037
:1019E000F7B506460F460024002504E0FFF76CFF1C
:1019F000041E00D005E00298411E89B20291002821
:101A0000F4D100BF002C24DD39463046FEF7F5FC4A
:101A1000BC4200DB3C4613E00F4800680E49C98811
:101A2000405C70550C48C088401C80B20A49C88090
:101A30008988884202DB00200749C880681C85B27B
:101A4000A542E9DB04484089001B03494881002086
:101A500070552046FEBD00003C08002000BF124922
:101A60000969C8B211494989104A9288914216DA27
:101A700000210E4A918111464989491C5181114624
:101A800009681289885409490989491C89B2074A99
:101A900011819288914202DB0021044A11810021C8
:101AA000024A918170470000001C01403C08002060
:101AB00060B500231A46002C00D160BD16E0154623
:101AC000561CB2B2435D0B4D6D696D0A6D021D432C
:101AD000084E756100BF00BF00BF064B9B68DB0767
:101AE000DB0F01256B406B40002BF5D08A42E6DB13
:101AF00000BFE2E7001C014000C1814001C08041FD
:101B000001C0804100C1814001C0804100C18140CD
:101B100000C1814001C0804101C0804100C18140BD
:101B200000C1814001C0804100C1814001C08041AD
:101B300001C0804100C1814001C0804100C181409D
:101B400000C1814001C0804100C1814001C080418D
:101B500001C0804100C1814000C1814001C080417D
:101B600001C0804100C1814001C0804100C181406D
:101B700000C1814001C0804101C0804100C181405D
:101B800000C1814001C0804100C1814001C080414D
:101B900001C0804100C1814000C1814001C080413D
:101BA00001C0804100C1814001C0804100C181402D
:101BB00000C1814001C0804100C1814001C080411D
:101BC00001C0804100C1814001C0804100C181400D
:101BD00000C1814001C0804101C0804100C18140FD
:101BE00000C1814001C0804100C1814001C08041ED
:101BF00001C0804100C1814000C0C101C30302C2D5
:101C0000C60607C705C5C404CC0C0DCD0FCFCE0E3C
:101C10000ACACB0BC90908C8D81819D91BDBDA1AAC
:101C20001EDEDF1FDD1D1CDC14D4D515D71716D61C
:101C3000D21213D311D1D010F03031F133F3F2328C
:101C400036F6F737F53534F43CFCFD3DFF3F3EFEFC
:101C5000FA3A3BFB39F9F83828E8E929EB2B2AEA6C
:101C6000EE2E2FEF2DEDEC2CE42425E527E7E626DC
:101C700022E2E323E12120E0A06061A163A3A2624C
:101C800066A6A767A56564A46CACAD6DAF6F6EAEBC
:101C9000AA6A6BAB69A9A86878B8B979BB7B7ABA2C
:101CA000BE7E7FBF7DBDBC7CB47475B577B7B6769C
:101CB00072B2B373B17170B050909151935352920C
:101CC00096565797559594549C5C5D9D5F9F9E5E7C
:101CD0005A9A9B5B99595898884849894B8B8A4AEC
:101CE0004E8E8F4F8D4D4C8C44848545874746865C
:101CF00082424383418180407E0205010100000051
:101D0000201D0000000000202C0000000401000045
:101D10004C1D00002C000020941C0000200100003D
:101D20002146696E6420545032383031204F4B0DBB
:101D30000A205A5920426F6F7420566572322E3035
:0C1D40000D0A0000000000000000000080
:04000005000000C136
:00000001FF
